{
  "contractName": "BetsContract",
  "abi": [
    {
      "inputs": [
        {
          "internalType": "contract TreatsToken",
          "name": "_treatsToken",
          "type": "address"
        }
      ],
      "stateMutability": "nonpayable",
      "type": "constructor"
    },
    {
      "inputs": [
        {
          "internalType": "uint256",
          "name": "",
          "type": "uint256"
        }
      ],
      "name": "bets",
      "outputs": [
        {
          "internalType": "string",
          "name": "teamA",
          "type": "string"
        },
        {
          "internalType": "string",
          "name": "teamB",
          "type": "string"
        },
        {
          "internalType": "uint256",
          "name": "amountA",
          "type": "uint256"
        },
        {
          "internalType": "uint256",
          "name": "amountB",
          "type": "uint256"
        },
        {
          "internalType": "uint256",
          "name": "timeBetClose",
          "type": "uint256"
        },
        {
          "internalType": "bool",
          "name": "closed",
          "type": "bool"
        }
      ],
      "stateMutability": "view",
      "type": "function",
      "constant": true
    },
    {
      "inputs": [
        {
          "internalType": "uint256",
          "name": "",
          "type": "uint256"
        },
        {
          "internalType": "uint256",
          "name": "",
          "type": "uint256"
        }
      ],
      "name": "gambles",
      "outputs": [
        {
          "internalType": "address",
          "name": "gambler",
          "type": "address"
        },
        {
          "internalType": "bool",
          "name": "team",
          "type": "bool"
        },
        {
          "internalType": "uint256",
          "name": "amount",
          "type": "uint256"
        }
      ],
      "stateMutability": "view",
      "type": "function",
      "constant": true
    },
    {
      "inputs": [],
      "name": "name",
      "outputs": [
        {
          "internalType": "string",
          "name": "",
          "type": "string"
        }
      ],
      "stateMutability": "view",
      "type": "function",
      "constant": true
    },
    {
      "inputs": [],
      "name": "nbBets",
      "outputs": [
        {
          "internalType": "uint256",
          "name": "",
          "type": "uint256"
        }
      ],
      "stateMutability": "view",
      "type": "function",
      "constant": true
    },
    {
      "inputs": [],
      "name": "owner",
      "outputs": [
        {
          "internalType": "address",
          "name": "",
          "type": "address"
        }
      ],
      "stateMutability": "view",
      "type": "function",
      "constant": true
    },
    {
      "inputs": [],
      "name": "treatsToken",
      "outputs": [
        {
          "internalType": "contract TreatsToken",
          "name": "",
          "type": "address"
        }
      ],
      "stateMutability": "view",
      "type": "function",
      "constant": true
    },
    {
      "inputs": [
        {
          "internalType": "string",
          "name": "_teamA",
          "type": "string"
        },
        {
          "internalType": "string",
          "name": "_teamB",
          "type": "string"
        },
        {
          "internalType": "uint256",
          "name": "_timeBetClose",
          "type": "uint256"
        }
      ],
      "name": "createBet",
      "outputs": [],
      "stateMutability": "nonpayable",
      "type": "function"
    },
    {
      "inputs": [
        {
          "internalType": "uint256",
          "name": "_idx",
          "type": "uint256"
        },
        {
          "internalType": "bool",
          "name": "_team",
          "type": "bool"
        },
        {
          "internalType": "uint256",
          "name": "_amount",
          "type": "uint256"
        }
      ],
      "name": "participate",
      "outputs": [],
      "stateMutability": "nonpayable",
      "type": "function"
    },
    {
      "inputs": [
        {
          "internalType": "uint256",
          "name": "_idx",
          "type": "uint256"
        },
        {
          "internalType": "bool",
          "name": "_winner",
          "type": "bool"
        }
      ],
      "name": "setBetWinner",
      "outputs": [],
      "stateMutability": "nonpayable",
      "type": "function"
    }
  ],
  "bytecode": "0x60806040526040518060400160405280600981526020017f4441707020426574730000000000000000000000000000000000000000000000815250600090805190602001906200005192919062000116565b503480156200005f57600080fd5b5060405162001af138038062001af18339818101604052810190620000859190620001dd565b80600160006101000a81548173ffffffffffffffffffffffffffffffffffffffff021916908373ffffffffffffffffffffffffffffffffffffffff16021790555033600260006101000a81548173ffffffffffffffffffffffffffffffffffffffff021916908373ffffffffffffffffffffffffffffffffffffffff160217905550600060058190555050620002d0565b828054620001249062000251565b90600052602060002090601f01602090048101928262000148576000855562000194565b82601f106200016357805160ff191683800117855562000194565b8280016001018555821562000194579182015b828111156200019357825182559160200191906001019062000176565b5b509050620001a39190620001a7565b5090565b5b80821115620001c2576000816000905550600101620001a8565b5090565b600081519050620001d781620002b6565b92915050565b600060208284031215620001f057600080fd5b60006200020084828501620001c6565b91505092915050565b6000620002168262000231565b9050919050565b60006200022a8262000209565b9050919050565b600073ffffffffffffffffffffffffffffffffffffffff82169050919050565b600060028204905060018216806200026a57607f821691505b6020821081141562000281576200028062000287565b5b50919050565b7f4e487b7100000000000000000000000000000000000000000000000000000000600052602260045260246000fd5b620002c1816200021d565b8114620002cd57600080fd5b50565b61181180620002e06000396000f3fe608060405234801561001057600080fd5b50600436106100935760003560e01c80638d756b94116100665780638d756b94146101395780638da5cb5b14610155578063b1f2f6a014610173578063cd3d752114610191578063d0221ac2146101ad57610093565b806306fdde031461009857806322af00fa146100b657806350d936bb146100eb57806372e57d7314610107575b600080fd5b6100a06101cb565b6040516100ad91906112ac565b60405180910390f35b6100d060048036038101906100cb9190611011565b610259565b6040516100e2969594939291906112ce565b60405180910390f35b61010560048036038101906101009190610f92565b6103b2565b005b610121600480360381019061011c91906110c5565b610509565b60405161013093929190611231565b60405180910390f35b610153600480360381019061014e919061103a565b61057d565b005b61015d610a4d565b60405161016a91906111df565b60405180910390f35b61017b610a73565b604051610188919061139d565b60405180910390f35b6101ab60048036038101906101a69190611076565b610a79565b005b6101b5610dc1565b6040516101c29190611291565b60405180910390f35b600080546101d8906115b9565b80601f0160208091040260200160405190810160405280929190818152602001828054610204906115b9565b80156102515780601f1061022657610100808354040283529160200191610251565b820191906000526020600020905b81548152906001019060200180831161023457829003601f168201915b505050505081565b600360205280600052604060002060009150905080600001805461027c906115b9565b80601f01602080910402602001604051908101604052809291908181526020018280546102a8906115b9565b80156102f55780601f106102ca576101008083540402835291602001916102f5565b820191906000526020600020905b8154815290600101906020018083116102d857829003601f168201915b50505050509080600101805461030a906115b9565b80601f0160208091040260200160405190810160405280929190818152602001828054610336906115b9565b80156103835780601f1061035857610100808354040283529160200191610383565b820191906000526020600020905b81548152906001019060200180831161036657829003601f168201915b5050505050908060020154908060030154908060040154908060050160009054906101000a900460ff16905086565b600260009054906101000a900473ffffffffffffffffffffffffffffffffffffffff1673ffffffffffffffffffffffffffffffffffffffff163373ffffffffffffffffffffffffffffffffffffffff161461040c57600080fd5b610414610de7565b83816000018190525082816020018190525060008160a0019015159081151581525050603c8261044491906114b1565b4261044f919061142a565b81608001818152505080600360006005548152602001908152602001600020600082015181600001908051906020019061048a929190610e1f565b5060208201518160010190805190602001906104a7929190610e1f565b5060408201518160020155606082015181600301556080820151816004015560a08201518160050160006101000a81548160ff0219169083151502179055509050506001600560008282546104fc919061142a565b9250508190555050505050565b6004602052816000526040600020818154811061052557600080fd5b9060005260206000209060020201600091509150508060000160009054906101000a900473ffffffffffffffffffffffffffffffffffffffff16908060000160149054906101000a900460ff16908060010154905083565b600260009054906101000a900473ffffffffffffffffffffffffffffffffffffffff1673ffffffffffffffffffffffffffffffffffffffff163373ffffffffffffffffffffffffffffffffffffffff16146105d757600080fd5b6003600083815260200190815260200160002060050160009054906101000a900460ff161561063b576040517f08c379a00000000000000000000000000000000000000000000000000000000081526004016106329061133d565b60405180910390fd5b60016003600084815260200190815260200160002060050160006101000a81548160ff02191690831515021790555060005b6004600084815260200190815260200160002080549050811015610a48576004600084815260200190815260200160002081815481106106d6577f4e487b7100000000000000000000000000000000000000000000000000000000600052603260045260246000fd5b906000526020600020906002020160000160149054906101000a900460ff1615158215151415610a3557600060046000858152602001908152602001600020828154811061074d577f4e487b7100000000000000000000000000000000000000000000000000000000600052603260045260246000fd5b90600052602060002090600202016001015490506000600360008681526020019081526020016000206002015411801561079d575060006003600086815260200190815260200160002060030154115b156109075782156108595760036000858152602001908152602001600020600201546003600086815260200190815260200160002060030154600460008781526020019081526020016000208481548110610821577f4e487b7100000000000000000000000000000000000000000000000000000000600052603260045260246000fd5b90600052602060002090600202016001015461083d91906114b1565b6108479190611480565b81610852919061142a565b9050610906565b600360008581526020019081526020016000206003015460036000868152602001908152602001600020600201546004600087815260200190815260200160002084815481106108d2577f4e487b7100000000000000000000000000000000000000000000000000000000600052603260045260246000fd5b9060005260206000209060020201600101546108ee91906114b1565b6108f89190611480565b81610903919061142a565b90505b5b600160009054906101000a900473ffffffffffffffffffffffffffffffffffffffff1673ffffffffffffffffffffffffffffffffffffffff1663a9059cbb600460008781526020019081526020016000208481548110610990577f4e487b7100000000000000000000000000000000000000000000000000000000600052603260045260246000fd5b906000526020600020906002020160000160009054906101000a900473ffffffffffffffffffffffffffffffffffffffff16836040518363ffffffff1660e01b81526004016109e0929190611268565b602060405180830381600087803b1580156109fa57600080fd5b505af1158015610a0e573d6000803e3d6000fd5b505050506040513d601f19601f82011682018060405250810190610a329190610f69565b50505b8080610a409061161c565b91505061066d565b505050565b600260009054906101000a900473ffffffffffffffffffffffffffffffffffffffff1681565b60055481565b60008111610abc576040517f08c379a0000000000000000000000000000000000000000000000000000000008152600401610ab39061135d565b60405180910390fd5b42600360008581526020019081526020016000206004015411610b14576040517f08c379a0000000000000000000000000000000000000000000000000000000008152600401610b0b9061137d565b60405180910390fd5b6003600084815260200190815260200160002060050160009054906101000a900460ff1615610b78576040517f08c379a0000000000000000000000000000000000000000000000000000000008152600401610b6f9061137d565b60405180910390fd5b6005548310610bbc576040517f08c379a0000000000000000000000000000000000000000000000000000000008152600401610bb39061137d565b60405180910390fd5b600160009054906101000a900473ffffffffffffffffffffffffffffffffffffffff1673ffffffffffffffffffffffffffffffffffffffff166323b872dd3330846040518463ffffffff1660e01b8152600401610c1b939291906111fa565b602060405180830381600087803b158015610c3557600080fd5b505af1158015610c49573d6000803e3d6000fd5b505050506040513d601f19601f82011682018060405250810190610c6d9190610f69565b50600060405180606001604052803373ffffffffffffffffffffffffffffffffffffffff16815260200184151581526020018381525090506004600085815260200190815260200160002081908060018154018082558091505060019003906000526020600020906002020160009091909190915060008201518160000160006101000a81548173ffffffffffffffffffffffffffffffffffffffff021916908373ffffffffffffffffffffffffffffffffffffffff16021790555060208201518160000160146101000a81548160ff0219169083151502179055506040820151816001015550508215610d8d5781600360008681526020019081526020016000206002016000828254610d81919061142a565b92505081905550610dbb565b81600360008681526020019081526020016000206003016000828254610db3919061142a565b925050819055505b50505050565b600160009054906101000a900473ffffffffffffffffffffffffffffffffffffffff1681565b6040518060c0016040528060608152602001606081526020016000815260200160008152602001600081526020016000151581525090565b828054610e2b906115b9565b90600052602060002090601f016020900481019282610e4d5760008555610e94565b82601f10610e6657805160ff1916838001178555610e94565b82800160010185558215610e94579182015b82811115610e93578251825591602001919060010190610e78565b5b509050610ea19190610ea5565b5090565b5b80821115610ebe576000816000905550600101610ea6565b5090565b6000610ed5610ed0846113dd565b6113b8565b905082815260208101848484011115610eed57600080fd5b610ef8848285611577565b509392505050565b600081359050610f0f816117ad565b92915050565b600081519050610f24816117ad565b92915050565b600082601f830112610f3b57600080fd5b8135610f4b848260208601610ec2565b91505092915050565b600081359050610f63816117c4565b92915050565b600060208284031215610f7b57600080fd5b6000610f8984828501610f15565b91505092915050565b600080600060608486031215610fa757600080fd5b600084013567ffffffffffffffff811115610fc157600080fd5b610fcd86828701610f2a565b935050602084013567ffffffffffffffff811115610fea57600080fd5b610ff686828701610f2a565b925050604061100786828701610f54565b9150509250925092565b60006020828403121561102357600080fd5b600061103184828501610f54565b91505092915050565b6000806040838503121561104d57600080fd5b600061105b85828601610f54565b925050602061106c85828601610f00565b9150509250929050565b60008060006060848603121561108b57600080fd5b600061109986828701610f54565b93505060206110aa86828701610f00565b92505060406110bb86828701610f54565b9150509250925092565b600080604083850312156110d857600080fd5b60006110e685828601610f54565b92505060206110f785828601610f54565b9150509250929050565b61110a8161150b565b82525050565b6111198161151d565b82525050565b61112881611553565b82525050565b60006111398261140e565b6111438185611419565b9350611153818560208601611586565b61115c81611721565b840191505092915050565b6000611174600b83611419565b915061117f82611732565b602082019050919050565b6000611197601183611419565b91506111a28261175b565b602082019050919050565b60006111ba601c83611419565b91506111c582611784565b602082019050919050565b6111d981611549565b82525050565b60006020820190506111f46000830184611101565b92915050565b600060608201905061120f6000830186611101565b61121c6020830185611101565b61122960408301846111d0565b949350505050565b60006060820190506112466000830186611101565b6112536020830185611110565b61126060408301846111d0565b949350505050565b600060408201905061127d6000830185611101565b61128a60208301846111d0565b9392505050565b60006020820190506112a6600083018461111f565b92915050565b600060208201905081810360008301526112c6818461112e565b905092915050565b600060c08201905081810360008301526112e8818961112e565b905081810360208301526112fc818861112e565b905061130b60408301876111d0565b61131860608301866111d0565b61132560808301856111d0565b61133260a0830184611110565b979650505050505050565b6000602082019050818103600083015261135681611167565b9050919050565b600060208201905081810360008301526113768161118a565b9050919050565b60006020820190508181036000830152611396816111ad565b9050919050565b60006020820190506113b260008301846111d0565b92915050565b60006113c26113d3565b90506113ce82826115eb565b919050565b6000604051905090565b600067ffffffffffffffff8211156113f8576113f76116f2565b5b61140182611721565b9050602081019050919050565b600081519050919050565b600082825260208201905092915050565b600061143582611549565b915061144083611549565b9250827fffffffffffffffffffffffffffffffffffffffffffffffffffffffffffffffff0382111561147557611474611665565b5b828201905092915050565b600061148b82611549565b915061149683611549565b9250826114a6576114a5611694565b5b828204905092915050565b60006114bc82611549565b91506114c783611549565b9250817fffffffffffffffffffffffffffffffffffffffffffffffffffffffffffffffff0483118215151615611500576114ff611665565b5b828202905092915050565b600061151682611529565b9050919050565b60008115159050919050565b600073ffffffffffffffffffffffffffffffffffffffff82169050919050565b6000819050919050565b600061155e82611565565b9050919050565b600061157082611529565b9050919050565b82818337600083830152505050565b60005b838110156115a4578082015181840152602081019050611589565b838111156115b3576000848401525b50505050565b600060028204905060018216806115d157607f821691505b602082108114156115e5576115e46116c3565b5b50919050565b6115f482611721565b810181811067ffffffffffffffff82111715611613576116126116f2565b5b80604052505050565b600061162782611549565b91507fffffffffffffffffffffffffffffffffffffffffffffffffffffffffffffffff82141561165a57611659611665565b5b600182019050919050565b7f4e487b7100000000000000000000000000000000000000000000000000000000600052601160045260246000fd5b7f4e487b7100000000000000000000000000000000000000000000000000000000600052601260045260246000fd5b7f4e487b7100000000000000000000000000000000000000000000000000000000600052602260045260246000fd5b7f4e487b7100000000000000000000000000000000000000000000000000000000600052604160045260246000fd5b6000601f19601f8301169050919050565b7f426574206973206f766572000000000000000000000000000000000000000000600082015250565b7f616d6f756e742063616e6f742062652030000000000000000000000000000000600082015250565b7f4265742070617274696369706174696f6e2061726520636c6f73656400000000600082015250565b6117b68161151d565b81146117c157600080fd5b50565b6117cd81611549565b81146117d857600080fd5b5056fea2646970667358221220f1ad98e6b332758512f9a4a1cba23b90e67d3129171c708d6373ebe3e24bbec364736f6c63430008040033",
  "immutableReferences": {},
  "source": "pragma solidity >=0.7.0 <0.9.0;\n// SPDX-License-Identifier: MIT\nimport \"./TreatsToken.sol\";\n\ncontract BetsContract {\n    struct Gamble {\n        address gambler;\n        bool team;\n        uint256 amount;\n    }\n\n    struct Bet {\n        string teamA;\n        string teamB;\n        uint256 amountA;\n        uint256 amountB;\n        uint256 timeBetClose;\n        bool closed;\n    }\n\n    string public name = \"DApp Bets\";\n    TreatsToken public treatsToken;\n    address public owner;\n    mapping(uint256 => Bet) public bets;\n    mapping(uint256 => Gamble[]) public gambles;\n    uint256 public nbBets;\n\n    constructor(TreatsToken _treatsToken) {\n        treatsToken = _treatsToken;\n        owner = msg.sender;\n        nbBets = 0;\n    }\n\n    modifier onlyOwner() {\n        require(msg.sender == owner);\n        _;\n    }\n\n    // modifier onlyWhileOpen() {\n    //     require(block.timestamp >= startTime);\n    //     _;\n    // }\n\n    function createBet(\n        string memory _teamA,\n        string memory _teamB,\n        uint256 _timeBetClose\n    ) public onlyOwner {\n        Bet memory bet;\n        bet.teamA = _teamA;\n        bet.teamB = _teamB;\n        bet.closed = false;\n        bet.timeBetClose = block.timestamp + (_timeBetClose * 1 minutes);\n        bets[nbBets] = bet;\n        nbBets += 1;\n    }\n\n    function participate(\n        uint256 _idx,\n        bool _team,\n        uint256 _amount\n    ) public {\n        require(_amount > 0, \"amount canot be 0\");\n        require(\n            bets[_idx].timeBetClose > block.timestamp,\n            \"Bet participation are closed\"\n        );\n        require(!bets[_idx].closed, \"Bet participation are closed\");\n        require(_idx < nbBets, \"Bet participation are closed\");\n        treatsToken.transferFrom(msg.sender, address(this), _amount);\n        Gamble memory gamble = Gamble({\n            team: _team,\n            amount: _amount,\n            gambler: msg.sender\n        });\n        gambles[_idx].push(gamble);\n        if (_team) {\n            bets[_idx].amountA += _amount;\n        } else {\n            bets[_idx].amountB += _amount;\n        }\n    }\n\n    function setBetWinner(uint256 _idx, bool _winner) public onlyOwner {\n        require(!bets[_idx].closed, \"Bet is over\");\n        bets[_idx].closed = true;\n        for (uint256 i = 0; i < gambles[_idx].length; i++) {\n            if (_winner == gambles[_idx][i].team) {\n                uint256 amount = gambles[_idx][i].amount;\n                if (bets[_idx].amountA > 0 && bets[_idx].amountB > 0) {\n                    if (_winner) {\n                        amount +=\n                            (gambles[_idx][i].amount * bets[_idx].amountB) /\n                            bets[_idx].amountA;\n                    } else {\n                        amount +=\n                            (gambles[_idx][i].amount * bets[_idx].amountA) /\n                            bets[_idx].amountB;\n                    }\n                }\n                treatsToken.transfer(gambles[_idx][i].gambler, amount);\n            }\n        }\n    }\n}\n",
  "sourcePath": "/Users/lucasnaman/Documents/repositories/github/bets-decentralized/src/contracts/BetsContract.sol",
  "compiler": {
    "name": "solc",
    "version": "0.8.4+commit.c7e474f2.Emscripten.clang"
  },
  "schemaVersion": "3.2.3",
  "updatedAt": "2021-10-14T07:45:42.339Z",
  "networkType": "ethereum",
  "devdoc": {
    "kind": "dev",
    "methods": {},
    "version": 1
  },
  "userdoc": {
    "kind": "user",
    "methods": {},
    "version": 1
  }
}